:100000003DC06DC06CC02AC96AC069C068C028C83C
:1000100066C065C064C063C062C061C09DC75FC088
:100020005EC0C9C7C8C75BC05AC059C058C057C016
:1000300056C055C002FF0103000408050607070A61
:100040000B090C110D100E0F0FFF1313113131118D
:1000500013133111111131111331111113311131E8
:1000600011113111111171001E000C1E0018180021
:100070001E000000001E00121E003F0F11241FBEB4
:10008000CFEFCDBFDFE3DEBF809140008093400023
:10009000811105C098ED21E094BF209341008CBBF5
:1000A0001EE3A0E0BEE3ECE9FFE102C005900D9283
:1000B000A230B107D9F72EE3A2E0BEE301C01D9242
:1000C000A03FB207E1F710E0CEE3D0E003C02197F4
:1000D000FE012CDFCD33D107D1F7DBD839CF90CF5C
:1000E000E091DB3EF091DC3E8E179F0798F5309152
:1000F000E23E332361F0639FB0011124672F349FE8
:10010000A0011124452F329F90011124232F3091FB
:10011000E83EE091E33EF091E43E5091E53E351338
:100120001AC0DC01AA0FBB1F8A0F9B1F8E0F9F1FD7
:10013000E091E53EE80FF92FF11D6083E091E63E86
:10014000E80FF92FF11D40833091E73E830F911D99
:10015000FC0120830895880F991F880F991F8E0F27
:100160009F1FFC01E30FF11D1082E2CF0F931F933D
:10017000AB01BC018FB7F8940091D53E1091D63EEB
:100180002091D73E3091D83E8FBFEFB7F894809141
:10019000D53E9091D63EA091D73EB091D83EEFBFCC
:1001A000801B910BA20BB30B84179507A607B7070B
:1001B00060F31F910F910895CF92DF92EF92FF921B
:1001C0009FB7F89488E08093840A80918E0A81FF1B
:1001D000FCCF80918D0AE091A20AF091A30AC09011
:1001E000D13ED090D23EE090D33EF090D43E9FBF1F
:1001F00080FF08C0E730F10528F48FEFC81AD80A4D
:10020000E80AF80A9F0136952795CF01820F911DC4
:10021000E22FE695E695322F32953F70E31BFF0BF8
:1002200027FD3196E80FF91FA0E3B3E0A70196017F
:1002300073DEF694E794D794C794C60ED71EE81ED3
:10024000F91EC701B6016E0F7F1F811D911DFF9022
:10025000EF90DF90CF9008950F931F93CF93DF938C
:10026000CDB7DEB72797CDBFDEBF8091DD3E909141
:10027000DE3E89839A838091E33E9091E43E892B10
:1002800009F469C08091E13E8C300CF064C094DFC9
:100290000091E93E1091EA3E2091EB3E3091EC3E18
:1002A000AB01BC01401B510B620B730B8091DF3E15
:1002B0009091E03EB0E0A0E0481759076A077B073D
:1002C00030F3F894A091E33EB091E43EFD01319605
:1002D0008C918F83A091ED3EB091EE3E9C918091E8
:1002E000EF3E982B9E839C91809589238D838D81F1
:1002F0008C8388E08B835E816D814F813B812C8173
:1003000089819A815C9347FD252F3A95000000C0B2
:100310002C93262F41F0441F00C000006C9301D0A5
:10032000F1CF00C0089538E0419100006C930000C7
:1003300000C000C0019731F74F833B832C83898332
:100340009A83789439DF6093E93E7093EA3E809314
:10035000EB3E9093EC3E2796CDBFDEBFDF91CF9171
:100360001F910F910895CF93DF93FC018091073E79
:100370009091083E309759F410920A0682E090E07E
:100380008093093E90930A3EDF91CF910895248592
:1003900024FD05C0228133812817390721F00190FF
:1003A000F081E02DE7CFE0930B3EF0930C3EC0E0F0
:1003B000D6E085899FE3882319F0928592959F70F6
:1003C0008385258130E02EA33FA3268130E02AA734
:1003D0003BA78B31E8F48C5F8D838185282F2F70AC
:1003E00020612A83288D2360288F278130852A8FDA
:1003F0003B8F9C8F92859F70998382958F70898F98
:1004000081E88883848582FD05C081E08887BCCF30
:100410008FE1E2CF81E08987B7CF1F93CF93DF933E
:10042000FC01848580FD9EC083FF9CC0877F8487FC
:10043000C585D68595897689911198C017813085B3
:10044000632F607CC11522E0D20718F1CE018F5FC7
:1004500091408430910508F479C0228120FF05C0C5
:10046000969587955FEFBAEF0AC0813021E0920739
:1004700020F0605CCE018F5E924051E0B6E0A12F8B
:10048000A295AF70432F4F7032953F70232F23708A
:100490003AC08FEF91E08C1B9D0B8430910508F4DE
:1004A00055C0228120FF03C096958795E6CF813005
:1004B00021E09207B8F26034A8F260548FE091E036
:1004C0008C1B9D0BCFCF352F320F343030F48F5C27
:1004D0009109232F803D9105B0F78631910538F5BC
:1004E000403128F0322F350F343030F1451B823047
:1004F000910528F5A03138F0450F403128F1250F3E
:10050000243068F54B1B8230910520F7A295A07F1F
:100510002295207F462B242B1F70A12B322F2A2FB0
:10052000278330877B30D8F47F5F768B1BC0450FE5
:100530004031C0F64597D1CF4B1B232FD8CFA50F05
:10054000A031D0F60297D3CFAB1BDDCFC787D08BBE
:10055000848582FFB3C080E8168A858B03C08485BA
:1005600081608487DF91CF911F91089547855089DD
:10057000C41BD50B90FF07C0CB36DF4F9CF4743003
:1005800098F280E0E9CF91FF0FC01C161D0654F0D1
:10059000CA36DF4F0CF48CC041505109703120F243
:1005A0004787508B84E01BC092FF1CC0CA368FEF78
:1005B000D8070CF47DC0A189B289CA17DB070CF0FB
:1005C0007BC04B5651404B325140D8F6CF3F8FEF56
:1005D000D8070CF46FC088E022970CF4A5CF9813CD
:1005E000BBCFA2CF93FF0EC0D7FDDCCFA189B289CC
:1005F000CA17DB070CF060C0703108F495CF4F5F6D
:100600005F4FCECF94FF08C0733080F44189528988
:10061000C417D5073CF288CF95FF0AC0733010F697
:10062000418952894C175D070CF07ECF80E4D7CF0B
:1006300096FF0BC0793C08F0A4CF43895489C417B6
:10064000D5070CF071CF80E2CACF97FF6DCF8485BC
:1006500082FD1EC0A189B28980E4AC17BD070CF0F1
:1006600084E01092053E1092063ECF3F2FEFD20756
:100670008CF4415051094787508B209114063091DA
:100680001506215031092093140630931506A7CF83
:10069000892FEBCF22970CF4A2CF4F5F5F4F478794
:1006A000508B20911406309115062F5F3F4FEBCFF2
:1006B00081E095CF82E093CF80E191CF84E04CCF71
:1006C000813041F020F0823049F060E001C06EE1FD
:1006D00070E002C060E07EE180E0089560E070E0DC
:1006E0008EE10895CF93C82F862FEADF472F282F5A
:1006F0008C2F90E0CF91F4CC882319F090E00896ED
:10070000EFCC81E190E0FCCFFF920F931F93CF934A
:10071000DF93182F062FF42EC9E0D0E02F2D402FA5
:10072000612FCE01DDDC2196C231D105B9F7DF9111
:10073000CF911F910F91FF900895EF92FF921F9319
:10074000CF93DF93C42F462F811116C0162FD52FBC
:10075000F12CE12C212F4D2F6C2FC701C1DC8FEF25
:10076000E81AF80A89E0E816F104A1F7DF91CF91C1
:100770001F91FF90EF900895652F8C2FDF91CF91FF
:100780001F91FF90EF90C0CFDF92EF92FF920F93F7
:100790001F93CF93DF93D82ED62FC72FE42E4091EF
:1007A0006C9F50916D9F60916E9FC7DF0D2F1C2F26
:1007B000F12CD0E0C0E0CE15DF0579F0F801819191
:1007C0008F017EDF472F282FD11004C0CE0188DC97
:1007D0002196F1CF8C2F90DFFBCFDF91CF911F912E
:1007E0000F91FF90EF90DF9037CD88E08093130456
:1007F0001092023E08958DE08093130481E080936F
:10080000023E0895EF92FF920F931F93CF93DF93D1
:10081000082FF62EE42E122FD0E0C0E02E2D4F2D03
:10082000602FCE015DDC2196C231D105B9F71123CD
:1008300039F0DF91CF911F910F91FF90EF900CCD88
:10084000DF91CF911F910F91FF90EF900895962F18
:10085000672F242F482F892FD5CFFF920F931F93F7
:10086000CF93DF93F82EC92FD62F60916C9F709194
:100870006D9F80916E9F40E0EADF0F2D1C2FC0E03E
:10088000CD1739F0F80161918F018C2F2BDFCF5FED
:10089000F7CFDF91CF911F910F91FF90DDCCEFE06B
:1008A000FEE330E020E080E041E050E09589907682
:1008B00039F0BA01022E01C0660F0A94EAF7862BBE
:1008C0002F5F3F4F77962630310581F70895EF92DD
:1008D000FF920F931F93CF93DF93E1DFC82F8770B1
:1008E000C9F0E12CC0FF02C094E1E92EF12CC2FF57
:1008F00002C084E1F82ED0E0C1FDD4E110E000E0B8
:100900002E2D4F2D6D2FC801EBDB0F5F1F4F0930D0
:100910001105B1F78C2F887351F040E0C5FD44E11B
:1009200064E1C3FF60E080E0C4FD84E1EDDEDF91BF
:10093000CF911F910F91FF90EF908ECC2091003EB0
:100940003091013EC9019695879520FD07C080939F
:10095000003E9093013E8091003E089524EB922743
:10096000F6CF0F931F93CF93DF93162F082FEC0131
:10097000E5DF83708330E1F389938C2F801B81172F
:10098000B8F3DF91CF911F910F910895FF920F93CC
:100990001F93CF93DF93082FF92EEB01142F642FB1
:1009A000CE01DFDF902FDE01E02FFF2D21918D9111
:1009B00028130BC08E2F891B8117C0F3888190E00C
:1009C000019663E070E095DA8883DF91CF911F9103
:1009D0000F91FF9008958091080483FB882780F988
:1009E000089594E0811116C09093260490912004FC
:1009F00092FD0AC09FB7F89481110FC08091320414
:100A0000877F809332049FBF8091010A8B7F809300
:100A1000010A089590932504E9CF809132048860FB
:100A2000F0CF8C30F0F490E0FC01E057F0462081EC
:100A30002F3FB9F0FC01EC57F046E08130E2E39F34
:100A4000F0011124FC5F613069F4218388589046DD
:100A5000DC018C91E80FF11D8089613029F08860FC
:100A6000808B08952283F2CF877FFACF8EEF809319
:100A700052011092993E80915000897F846080934A
:100A800050008DE08093130480E0ABDF809100067E
:100A90008E7F80930006C6E6DFE961E08991C1DFC1
:100AA0008FE9CC36D807C9F78091500081608093D8
:100AB0005000889588ED91E084BF90930001FFCFAE
:100AC000BF92CF92DF92EF92FF920F931F93CF933B
:100AD000DF93B62ED72FC1E0C8278C2F8170F82E58
:100AE000C0906C9FD0906D9FE0906E9F40E08E2DE7
:100AF000B601ADDE4091759F5091769F6091779FD2
:100B00008C2F1BDE0B2D1D2FD0E0C0E0F801819152
:100B10008F01D6DD472F282FFF20C9F0CE01E0DA64
:100B20002196C730D10591F797DB68EB7BE080E039
:100B300090E01CDB41E08E2DB601DF91CF911F913B
:100B40000F91FF90EF90DF90CF90BF9080CE8C2FD1
:100B5000D3DDE6CFCF92DF92EF92CF93DF93D82F02
:100B6000C62FC0906C9FD0906D9FE0906E9F40E02C
:100B70008E2DB6016CDECD17D8F440916F9F509149
:100B8000709F6091719F80E0D8DD40E060E08EE171
:100B9000BBDD62DB60ED77E080E090E0E7DA41E02A
:100BA0008E2DB601DF91CF91EF90DF90CF904FCE99
:100BB0004091729F5091739F6091749FDC1730F049
:100BC00040916F9F5091709F6091719F80E0B5DD63
:100BD00040E06EE180E0DCCF6F927F928F92CF9207
:100BE000DF92EF921F93CF93DF93D82F3A01862E97
:100BF000122FC0E0C0906C9FD0906D9FE0906E9FD0
:100C0000682DA3018D2F99DD27DB62E370E080E082
:100C100090E0ACDA6E2DA6018D2F8FDD1DDB62E337
:100C200070E080E090E0A2DACF5F1C13E9CFDF91A3
:100C3000CF911F91EF90DF90CF908F907F906F902A
:100C400008956F927F928F92CF92DF92EF923B0145
:100C5000882E41E0FCDD62E370E080E090E086DA1F
:100C6000C0906C9FD0906D9FE0906E9F41E08E2D64
:100C7000B601EDDD62E370E080E090E077DA41E01C
:100C8000882DB301E4DD62E370E080E090E06EDA8D
:100C900041E08E2DB601DBDD62E370E080E090E0A4
:100CA000EF90DF90CF908F907F906F905FCACF9240
:100CB000DF92EF92CF938091D03E909100148917EC
:100CC00079F0A0E0B4E1E0E0F0E10FB6228123701A
:100CD000E9F7F8948C938DE984BF83E080830FBE9D
:100CE000C6E0C0906F9FD090709FE090719F8E2D56
:100CF000B601A7DFC150D9F7CF91EF90DF90CF9029
:100D000008950F931F93CF93DF93D82F8B01C7E0E4
:100D100081E0DD2311F0C8E380E04091759F5091A0
:100D2000769F6091779F09DD97DAB9DD982F9C2334
:100D300039F08FE493EC0197F1F700C00000F5CF94
:100D40008C2341F4EFE4F3EC3197F1F700C000009D
:100D5000A6DDF6CFD1111DC0823031F08430F9F01C
:100D6000813009F582E01CC0F8011082F801808111
:100D7000A7DCAB0111E0682F8D2FDFDC6DDA8FDD92
:100D80008C23B1F08FE493EC0197F1F700C00000E1
:100D9000F6CF803149F3803229F3883021F481E0A5
:100DA000F8018083E3CF40E050E080E010E0E3CF43
:100DB000812FDF91CF911F910F910895BF92CF9214
:100DC000DF92EF92FF920F931F93CF93DF931F92C7
:100DD000CDB7DEB7182F7B01B42E87E0841710F44F
:100DE00087E0B82E40E0B701812FCEDC670100E03C
:100DF0001982BE016F5F7F4F812F83DF811119C080
:100E000040E0B701812FC0DC4091729F5091739FE9
:100E10006091749F22E0812FDFDE802F0F90DF91A1
:100E2000CF911F910F91FF90EF90DF90CF90BF90E7
:100E30000895F60191916F0189819813E1CF0F5FB9
:100E4000402FB701812FA0DC6CE271E080E090E0E0
:100E50008DD90B1568F240916F9F5091709F6091F2
:100E6000719FD8CF6F927F928F929F92AF92BF92D5
:100E7000CF92DF92EF92FF920F931F93CF93DF9366
:100E80001F92CDB7DEB7D82EC62EB42E062F172F41
:100E9000E62EF72E60906C9F70906D9F80906E9FF5
:100EA000A62EF70191907F0140E0882DB301CFDCA1
:100EB000892D06DCAB01682F8D2D3FDCCDD960E993
:100EC00071E080E090E052D9682DA3018D2D35DCD2
:100ED000C3D968EC70E080E090E048D98E2D8C1981
:100EE0008B15F8F21982BE016F5F7F4F8D2D09DFE0
:100EF000882331F0F80191918F018981981789F049
:100F000080E00F90DF91CF911F910F91FF90EF90B4
:100F1000DF90CF90BF90AF909F908F907F906F9019
:100F20000895682DA3018D2D08DC96D96AEF70E035
:100F300080E090E01BD9802F8A198B1598F281E010
:100F4000E0CFADDC882339F08FE493EC0197F1F723
:100F500000C00000F6CF08958F9381E080938D0A42
:100F60008FB78F93EF93FF93E1EDFEE39F93689428
:100F70008FEF0DC0E89484819581805D9C4F8483C0
:100F80009583885E934080F0848395838FEF908172
:100F9000981B919390819F4F919390819F4F919334
:100FA00090819F4F919336F39F91FF91EF918F9195
:100FB0008FBF8F9118951F920F920FB60F92112429
:100FC0002F933F934F935F936F937F938F939F9351
:100FD000AF93BF93CF93DF93EF93FF93C0E0D6E03F
:100FE000E0910B3EF0910C3E3097F1F018823B857A
:100FF0008889998922852F7002C0969587952A95B0
:10100000E2F785879687848588608487848582FF58
:1010100023C0848531FF1BC08260848780E190E01B
:101020008093093E90930A3EFF91EF91DF91CF911B
:10103000BF91AF919F918F917F916F915F914F91F0
:101040003F912F910F900FBE0F901F9018958D7F9D
:10105000848788E090E0E4CF8081918184D9E4CFD7
:101060001F920F920FB60F921124CF92DF92EF9240
:10107000FF922F933F934F935F936F937F938F9341
:101080009F93AF93BF93CF93DF93EF93FF9381E051
:10109000809353018091993E882309F492C08FB7C1
:1010A000F894C090D53ED090D63EE090D73EF090D8
:1010B000D83E8FBF8091093E90910A3E8871992752
:1010C000892B09F49FC08091053E9091063E0097C0
:1010D000A1F02091093E30910A3E9FD98091053EB2
:1010E0009091063E892B09F083C01092073E109222
:1010F000083E1092093E10920A3E8091033E909164
:10110000043EC81AD90A24E1C216D10408F459C011
:1011100044968093033E9093043E8091093E9091C3
:101120000A3E892B09F04DC0E0E0F6E08091093ECF
:1011300090910A3E89799927892B09F042C08091C4
:101140000D3E90910E3EDC0112962D913C91108E39
:1011500040EE20FD76C023FF71C048E2408F46E894
:10116000468F1082138243E0438733272093073E44
:101170003093083EA091053EB091063E109709F4C9
:1011800063C082E0828784831F968D919C915097E3
:1011900051962D913C915297820F931F1A962C9144
:1011A0001A972F7002C0880F991F2A95E2F7848B37
:1011B000958B84E090E08093093E90930A3ECD01A8
:1011C000D2D8FF91EF91DF91CF91BF91AF919F91D5
:1011D0008F917F916F915F914F913F912F91FF90F0
:1011E000EF90DF90CF900F900FBE0F901F9018954B
:1011F00082E080930A0684E090E08093093E909319
:101200000A3E7BCF8091093E90910A3E029709F0F9
:1012100074CF1092093E10920A3EC0910D3ED091BB
:101220000E3E209729F41092073E1092083E65CF9B
:10123000CE01F3D80990D881C02DF3CF22FFC1CFC2
:1012400048E2408F168E8DCF21E02287148221E064
:1012500030E02093093E30930A3EB2CF1F920F92A6
:101260000FB60F9211248F939F9388E08093090407
:101270008091023E882331F088ED91E084BF909305
:101280000001FFCF9F918F910F900FBE0F901F9085
:101290001895CF93DF93CDB7DEB7AF97CDBFDEBF45
:1012A00088ED90E084BF90936100E0E0F6E083E594
:1012B00082838DE0858380E2838381E08083109246
:1012C00002028093030A9EEF9093260A9093270AC6
:1012D0009BE09093000AE0E8FAE02DEF31E026A7CA
:1012E00037A7118290E89283848781E18083789484
:1012F00061E088E096DB61E089E093DB61E085E016
:1013000090DB61E084E08DDB61E084E08ADB62E019
:101310008AE087DB81E065DB809141018111FCCFB0
:1013200081E08093470180910D3E90910E3E26E62C
:101330003FE9EFE0FEE304E010E0B4E08B2E44E18F
:10134000E42EF12C6AE070E057E6C52E55E0D52E6C
:10135000A3E07A2EB4EF6B2E40E5A42EB12CD90178
:101360004D919D01912C4C3028F4A42FB0E0A65A49
:10137000B0469C90FE3309F082C0DC01009709F072
:1013800075C01482CF01158296820283138399203F
:1013900009F475C08286E18AF28A638B748BC782F6
:1013A000D0867186409122065091230649294093A8
:1013B00022065093230644E55FE9A6E05A2E90FEEC
:1013C00006C0DA014C90A42DB0E0BC5F8C929694DC
:1013D0005A944F5F5F4F5110F2CF6286A18AB28A52
:1013E000638B748B77964FE92C36340709F0B7CFAF
:1013F00080930D3E90930E3E809100148093D03EDA
:1014000081E08093520199E1909350018093993E3D
:10141000412C512C3201EBE03E2EF12CE12C20909E
:10142000729FB091739FB98FE091749FEA8F2FA242
:10143000B8A7E9A72AA6BBA7ECA72DA6BEA7EFA72A
:10144000EFEFE30DED3020F5F0E0E85DF54F0994A6
:101450006CC083C08FC18EC18DC19AC0B4C08AC117
:1014600089C1CAC00FC143C15BC1DA014D915C9112
:10147000119741155105C9F7EA17FB0709F4FFCF8A
:10148000ED93FC93119714964C914F5F44837BCF5F
:10149000C70164E170E019D5182F8B3010F014E10A
:1014A000181B110F812F90E0FC01EC5CFF4F0491A1
:1014B000FC01EB5CFF4F149160916C9F70916D9FEC
:1014C00080916E9F40E0C3D92EE140E064E1802F1F
:1014D00090E006D61F3F31F02EE140E064E1812F1D
:1014E00090E0FED5B9D604E610E0312C8FEFE81A73
:1014F000F80AC801012E000CAA0BBB0B480E591E9E
:101500006A1E7B1E80916F9F9091709FA091719F2A
:1015100089A39AA3ABA38091729F9091739FA0918E
:10152000749F8CA39DA3AEA36EC12CE330E0C701D2
:10153000B901CBD48C014F9720F0C901801B910BCE
:101540008C0121E0402F602F80E05CD9012B19F441
:1015500008EC10E0CBCF0EE1FCCF60916C9F709156
:101560006D9F80916E9F40E072D9C70169E070E085
:10157000ACD48C0120E04CE06EE1B2D520E04CE030
:101580006EE181E190E0801B910BAAD565D677C012
:101590008091D03E81FDEEC0C70163E070E095D43C
:1015A000182F20E040E060E080E02CD920E044E10A
:1015B0006AE0812F90E094D51D5F1231B8F34CD6CC
:1015C00006E910E093CF8091D03E82FDD3C020E0A9
:1015D0004FEF64E18CE016D901E010E020E042E03A
:1015E00060E0C8017DD50D5F1F4F03311105B1F7D4
:1015F00033D60AEF10E07ACFC7016FE374E165D408
:101600008C0120E040E060E080E0FCD8C8010E31B1
:10161000110558F465E070E058D460FDB7CF20E0C4
:1016200040E060E08AE0EED8B1CF4E978F3EA3E174
:101630009A0700F567E372E048D4C62E6FE370E0C6
:1016400044D4DD24D394D60E10E000E00C1540F411
:1016500020E040E06AE0C80143D50F5F1F4FF6CF9E
:1016600010E020E040E06AE0812F46D81F5F1D15A2
:10167000C0F38CCF21E040E06EE180E0C3D804E607
:1016800010E034CFC7016CE570E01FD4EAE4F0E06D
:1016900030E020E04491642F6F7050E074E0559585
:1016A00047957A95E1F7260F311D8217930770F061
:1016B000240F351F8217930728F03196B0E0E736E4
:1016C000FB0741F721E040E060E005C0613029F40C
:1016D00021E04EE16EE180E006C0633099F721E041
:1016E0004EE160E084E18ED808E710E0FFCEC7014C
:1016F00066E070E0EAD3982F990F890FAAE9BEE35C
:1017000020ED3EE3E82FF0E0E959FF4FE491ED933F
:101710008F5F823108F080E02A173B0799F736CFB8
:1017200010E000E0D12CC12C5801E4E0AE0EB11C59
:101730008C2D20E040E06EE18430C0F02EE140E0EE
:1017400060E0843099F464E1C501CAD4FFEFCF1A98
:10175000DF0A29E0C216D10459F7075F1F4F023193
:10176000110501F779D508EC10E0C0CEC8018C0D49
:101770009D1DEBCF339410E000E0B8CEF9ECEF16EE
:10178000F104E8F121EBE21624E0F20608F062C071
:1017900086D8F82ED6DBFF2009F4B3C08FB7F894B3
:1017A0004091D53E5091D63E6091D73E7091D83E43
:1017B0008FBF8091003E9091013E9C0124273527E8
:1017C0002093003E3093013E8417950731F481EE5B
:1017D0009CEA8093003E9093013E94E0F91609F450
:1017E00077C19F1508F461C0A1E0FA1609F48BC017
:1017F000B2E0FB1609F4ECC0412C512C3201F12C63
:10180000E12C0A501109101611060CF022C35FD802
:101810008FE493EC0197F1F700C00000DCD8813031
:1018200081F362E370E080E090E0A0D462E3E62E12
:10183000F12CD1D88111A2CFA7EAB1E61197F1F727
:1018400000C00000B5E0EB0EF11CE5EDEE16E7E0A0
:10185000FE0679F76091729F7091739F8091749FDB
:1018600041E0F5D7B8D8811107C087EA91E6019722
:10187000F1F700C00000F6CF93E041E039E12EEF30
:10188000409352013093500180915000897F8460D1
:101890008093500080915000816080935000889523
:1018A00020935201915061F7E1D8E0E1FE1609F46E
:1018B00064C2F0E2FF1609F480C128E0F2129CCF66
:1018C0009AD76AE0CE010B964CD84AE0BE016F5F12
:1018D0007F4FCE010B965AD8B12CC12CEE24E39445
:1018E000DD24D39483E0F82E60906F9F7090709FFA
:1018F0008090719FD11072C2E11081C26B2D8C2D2E
:1019000031C2339479CF77D758ECD52E40906C9F65
:1019100050906D9F60906E9F11D88770B82E47E0F1
:10192000C42E882E912CF12CE12C7E2C40E0862DAB
:10193000B2018DD720E04EE160E0C401D1D320E0B8
:101940004EE160E08B2DD8D620E040E06EE1C7018B
:10195000C7D320E040E06EE18E2DCED67DD4A12C01
:1019600045E0A40E9CD7882351F0B714D9F06091BC
:10197000729F7091739F8091749F63D9A7C087EA0B
:1019800091E60197F1F700C00000AD1448F39FEF16
:10199000E91AF90AA9E0EA16F10439F6CA94C11065
:1019A000C2CFE5CF7CD7882339F0E7EAF1E631975B
:1019B000F1F700C00000F6CFFCEEDF0E28E2D212F5
:1019C000ABCF8091D03E8E7F8093D03E70D97EC0C9
:1019D00012D767E0CE010196C4D760916C9F7091D9
:1019E0006D9F80916E9F40E032D7CE0101967C01C1
:1019F000D12CD7016D917D018D2D74D6D394B7E094
:101A0000DB12F7CF29D468EB7BE080E090E0AED327
:101A100060E0CE01019621D73AE0C32EF12C3FD7EA
:101A2000E82EE11009C03BD7E82EEFE4F3EC319744
:101A3000F1F700C00000F5CF4AD7F4E0EF1681F1CE
:101A4000FE1528F121E0E21681F142E0E41681F171
:101A5000E12CD12C76DADD2069F1E1E0F0E0EC0F49
:101A6000FD1FEF0DF11D80818E1124C0F3946F2DA9
:101A7000CE010196F2D664EF71E080E090E076D37B
:101A8000B7E0FB12CCCF8091D03E8B7F9DCF80E121
:101A9000E81671F090E2E91641F0A8E0EA12D8CF1A
:101AA000EE24E394DD24D394D5CF22E0E22EFACFC6
:101AB000E12CF8CFCA946DA57EA58FA5C2D860E0B1
:101AC000CE010196CAD6F12CC110A9CF8ED694CEE4
:101AD00092D66AE0FE0131966F01CF0142D793E0C2
:101AE000F92E40906C9F50906D9F60906E9FEC2CF3
:101AF00056014601D4018D914D01E2D540E0A7D6B3
:101B0000ABD360E971E080E090E030D341E0862D16
:101B1000B2019DD668EC70E080E090E027D3882D7C
:101B20008C198F1538F3BBD6982E911009C0B7D6F3
:101B3000982EEFE4F3EC3197F1F700C00000F5CFF9
:101B4000C6D6ADD6882339F08FE493EC0197F1F730
:101B500000C00000F6CFD5018D915D01813031F1DB
:101B600050F0823009F003CF41E0941651F080E24A
:101B70009812FDCE06C0B2E09B1619F0E0E19E126D
:101B8000F6CE41E0862DB20162D664EF71E080E0CE
:101B900090E0ECD28A2D8E198F1528F2F3949AE0FA
:101BA000F912A6CF8091D03E8D7F0ECFF4E09F1624
:101BB00041F328E09212DBCEE4CF1DD6A1E0AF8B3B
:101BC0001C8E712CFF24F394EE24E394B8ECB88FB0
:101BD00040906C9F50906D9F60906E9FAFD68F70BD
:101BE0008E8B8930D8F7DD24D394DE24CC24C394A3
:101BF000CF24F7E0FB8FA12CB12C90E08F8F98A31E
:101C0000912C812C8D8EFF2009F44CC0A1E0AC25D5
:101C1000AE8FEE2009F448C0B1E0BD25BD8B40E099
:101C2000862DB20114D6ED89EE2359F020E04EE165
:101C300060E08F8D98A154D220E040E06EE1C401B5
:101C40004FD2FE8DFF2351F020E04EE160E08E89FF
:101C500053D520E040E06EE18D8D4ED5FDD21D8A3A
:101C6000DD2011F0C11058C01AD6EE20F9F0D110C5
:101C70000AC0982F977009F4FEC0BB24B3942E8934
:101C80004D8D2413B12CFF2029F1C11047C0DF2C4A
:101C900011C0E11003C0FF2009F462C0EF89EF5FBB
:101CA000EF8B9CCF1E8EB5CF1D8AB9CFFF2081F060
:101CB000C11009C0887309F457C0AA24A3948E895F
:101CC0009D8D8913A12CD110CEC0CC24C39406C005
:101CD000DD2021F0C110CBC0DD24D394A7EAB1E60A
:101CE0001197F1F700C00000BD89BB5FBD8BE88D87
:101CF000BE1708F4B5CFDD2011F0C1100DC0FFEF05
:101D00008F1A9F0A29E08216910409F07BCF4B8D30
:101D100041504B8F411174CFEE2041F1B11028C0DA
:101D200022E04FA158A569A580E056D7EB2CFF20F3
:101D300049F0FA2CA1101EC022E0422D598D6A8D67
:101D400081E04AD7FED89C8D97110AC0E11002C0ED
:101D5000FF2031F0A88DA451A88FA83209F099CFA7
:101D60006C8D872DF7D6B2CEC12CB8CFB12CDECF7B
:101D70007F88DCCF8F898C8FE5CF3DD567E0CE01A2
:101D80000B96EFD547E0BE016F5F7F4FCE010B96FC
:101D9000FDD5BE01655F7F4F80E092D647E0BE0172
:101DA000655F7F4F80E00AD8E82E6CE271E080E04A
:101DB00090E0DCD1FF24F394FE0CBE016F5F7F4FF7
:101DC00081E07ED64F2D483008F047E0BE016F5FBE
:101DD0007F4F81E0F3D7682F8E2DC4CF4F2DBE01EA
:101DE000655F7F4F80E03ED8D82E882321F121E027
:101DF000682DA30180E0F0D6CF2CEE2081F04F2D8E
:101E0000BE016F5F7F4F81E02DD8E82E8823D1F08F
:101E100021E049A15AA16BA181E0DED6BF2CBC1004
:101E20006DCDD11003C0EE2009F468CDF394BAE073
:101E3000FB1260CD63CD22E04CA15DA16EA180E0DC
:101E4000CBD6DBCF22E04AA55BA56CA581E0C4D64A
:101E5000E6CFE1EA4E16EBEB5E06EDE06E067104AE
:101E600008F4EECA21CDE11059CFFA2C63CFE1106E
:101E700055CFF12C67CFF1101BCFDF2C2FCFEBED1F
:101E8000FEE382E390E08483958317828AE99EE3F0
:101E90008087918716861786108A118A81E0858748
:101EA0008287138682E0848786E390E0828393832F
:101EB00082E190E08083918384E0868384E294E0F1
:101EC000828B938B88E0848B0895AA1BBB1B51E106
:101ED00007C0AA1FBB1FA617B70710F0A61BB70B9A
:101EE000881F991F5A95A9F780959095BC01CD013F
:101EF000089597FB072E16F4009406D077FD08D0BE
:101F0000E4DF07FC05D03EF4909581959F4F08953E
:101F1000709561957F4F08950FD0A59F900DB49F48
:101F2000900DA49F800D911D11240895EE0FFF1FA9
:101F30000590F491E02D0994A29FB001B39FC001D8
:101F4000A39F01D0B29F700D811D1124911D089592
:041F5000F894FFCF33
:101F54001415161731300102040800001020000087
:101F64000000000102030706000000001E001E001E
:101F7400001E0C0004050607030201000102030011
:101F84000000000001010101000000001020408059
:081F9400080402010204080127
:021F9C00E1ACB6
:00000001FF
